:100000000C94F2010C940F020C940F020C940F024A
:100010000C940F020C940F020C940F020C940F021C
:100020000C940F020C940F020C940F020C940F020C
:100030000C940F020C940F020C940F020C940F02FC
:100040000C940F020C940F020C949B090C940F0259
:100050000C940F020C940F020C940F020C940F02DC
:100060000C940F020C940F02466F75727468204155
:100070006D656E646D656E740D0A0D0A73646C6F48
:10008000636B6572320D0A000D0A436865636B6924
:100090006E672074656D702D6C6F636B2073746177
:1000A00074652E2E2E000D0A436865636B696E67BA
:1000B000205057442073746174652E2E2E00646F97
:1000C0006E652E006661696C656421202043617253
:1000D00064206973207374696C6C20756E6C6F6337
:1000E0006B65642E000D0A547279696E6720746F17
:1000F000206C6F636B20636172642E2E2E00646F20
:100100006E652E006661696C656421202043617212
:1001100064206973207374696C6C206C6F636B6509
:10012000642E000D0A547279696E6720746F207511
:100130006E6C6F636B20636172642E2E2E000D0A4D
:10014000546573742072656164206F6620626C6F01
:10015000636B2030206F6E20534420636172642EE5
:100160002E2E006661696C65643B20756E61626C61
:100170006520746F2072656164204353442E0066CD
:1001800061696C65643B20726573706F6E73652086
:100190007761732025642E006661696C65643B207D
:1001A00063616E6E6F7420726561642043534420F6
:1001B000746F20636F6E6669726D2E00646F6E657A
:1001C0002E000D0A436C656172696E672074656D5F
:1001D000706F72617279206C6F636B206F6E205349
:1001E0004420636172642E2E2E006661696C656422
:1001F0003B20756E61626C6520746F20726561646E
:10020000204353442E006661696C65643B2072652F
:1002100073706F6E7365207761732025642E00669E
:1002200061696C65643B2063616E6E6F74207265FA
:1002300061642043534420746F20636F6E6669725B
:100240006D2E00646F6E652E000D0A53657474691F
:100250006E672074656D706F72617279206C6F6368
:100260006B206F6E20534420636172642E2E2E002B
:100270000D0A556E61626C6520746F207265616451
:10028000204353442E002530325820000D0A4349A4
:1002900044203D20002530325820000D0A435344AD
:1002A000203D20002530325820000D0A4F435220B7
:1002B0003D20000D0A436172642074797065202529
:1002C00064000A0D0A0D43616E6E6F7420696E69D9
:1002D0007469616C697A6520636172642E20204DB7
:1002E000616B652073757265207468652063617247
:1002F0006420697320706C756767656420696E207F
:1003000070726F7065726C792E006C6F636B6564D0
:1003100000756E000D0A50617373776F72642073FD
:1003200074617475733A2000204361726420434302
:10033000206661696C656421002043617264204518
:100340004343206661696C656421002041646472E6
:10035000657373206973206F7574206F66207261F6
:100360006E676521002043617264206973206C6FA1
:10037000636B656421000A0D4461746520657272C7
:100380006F723A002025730A0D0025303258200084
:100390002025730A0D253034583A20000A0D436F8A
:1003A0006E74656E7473206F6620626C6F636B2071
:1003B0006275666665723A000A0D52656164435360
:1003C0004428292C2073645F776169745F666F72BB
:1003D0005F646174612072657475726E732025307C
:1003E00032782E0011241FBECFEFD8E0DEBFCDBF84
:1003F00011E0A0E0B1E0EAE7FAE102C005900D9259
:10040000AE31B107D9F714E0AEE1B1E001C01D9201
:10041000A33AB107E1F70E9421040C943B0D0C9420
:10042000000040E0A8ECB0E097FF02C05A9A06C076
:100430005A98611571058105910581F024EF31E02D
:10044000FD013197F1F721503040D1F74F5F403235
:1004500029F0660F771F881F991FE6CF08955A98D5
:100460005B9880918B0484FF02C05A9A08955B9A2E
:100470000895DF92EF92FF920F931F93D82E7A0187
:100480008B0187FF0CC087E740E050E060E070E040
:100490000E943902823008F072C08FE7D8222A9A6F
:1004A0008FEF8EBD0DB407FEFDCF8EB52A988FEF6E
:1004B0008EBD0DB407FEFDCF8EB58D2D80648EBD33
:1004C0000DB407FEFDCF8EB5812F9927AA27BB2734
:1004D0008EBD0DB407FEFDCF8EB5C801AA27BB2780
:1004E0008EBD0DB407FEFDCF8EB5BB27A12F902F7B
:1004F0008F2D8EBD0DB407FEFDCF8EB5EEBC0DB4B5
:1005000007FEFDCF8EB580E4D81611F485E906C04C
:1005100088E4D81611F487E801C081E08EBD0DB4DF
:1005200007FEFDCF8EB580E09FEF9EBD0DB407FEA8
:10053000FDCF2EB527FF03C08F5F8A30B1F781E56D
:10054000D816E1F08AE7D816C9F089E4D816B1F0D8
:100550008DE4D81699F08AE4D81681F088E4D8168C
:1005600069F08AE6D81651F08BE5D81639F02A9A48
:100570008FEF8EBD0DB407FEFDCF8EB5822F1F917C
:100580000F91FF90EF90DF9008958BE540E050E0F1
:1005900060E070E00E943902882309F042C08EEFCB
:1005A0008EBD0DB407FEFDCF8EB5ADE7B4E0E0E043
:1005B0008C918EBD0DB407FEFDCF9EB5F0E0EE0F21
:1005C000FF1F90E0E827F927E558FC4FE0811196DE
:1005D00084E0AC38B80761F7EE0FEF5FEEBD0DB405
:1005E00007FEFDCF8EB58FEF8EBD0DB407FEFDCF9C
:1005F0008EB58FEF8EBD0DB407FEFDCF8EB52FEFFC
:100600003FEF9FEF9EBD0DB407FEFDCF8EB5882353
:1006100021F421503040B1F704C0232B11F080E0C9
:1006200008958FEF08951F93182F8AE640E050E059
:1006300060E070E00E943902882309F04DC08EEF1F
:100640008EBD0DB407FEFDCF8EB517701EBD0DB467
:1006500007FEFDCF8EB580917C048EBD0DB407FEE4
:10066000FDCF9EB520E030E0482F50E09FEF2417EB
:10067000350748F4F901EB59FC4F80818EBD0DB46C
:1006800007FEFDCF04C09EBD0DB407FEFDCF8EB5A5
:100690002F5F3F4F82E02030380749F78FEF8EBD44
:1006A0000DB407FEFDCF8EB58FEF8EBD0DB407FEE6
:1006B000FDCF8EB52FEF3FEF9FEF9EBD0DB407FE30
:1006C000FDCF8EB5882321F421503040B1F704C00E
:1006D000232B11F080E001C08FEF1F9108958DE46E
:1006E00040E050E060E070E00E94390280937503C2
:1006F0008FEF8EBD0DB407FEFDCF8EB580937603D0
:100700008FEF8EBD0DB407FEFDCF8EB580E008954E
:1007100010926101109262011092630110926401C3
:1007200080917B048230E1F488E44AEA51E060E0A1
:1007300070E00E943902882389F5E1E6F1E09FEF3D
:100740009EBD0DB407FEFDCF8EB5819381E0E536E9
:10075000F807B1F78FEF8EBD0DB407FEFDCF1BC0BC
:100760008AE740E050E060E070E00E9439028823B0
:10077000A9F4E1E6F1E09FEF9EBD0DB407FEFDCFC9
:100780008EB5819381E0E536F807B1F78FEF8EBD26
:100790000DB407FEFDCF8EB580E008958FEF08956C
:1007A00020E030E09FEF9EBD0DB407FEFDCF8EB57B
:1007B0008F3F29F42F5F3F4F24363105A1F708956D
:1007C000CF93DF93CDE7D4E0FE01119284E0ED38C2
:1007D000F807D9F789E440E050E060E070E00E945B
:1007E00039020E94D003282F8E3FB1F000D000D0F4
:1007F00088EB93E0EDB7FEB792838183822F992730
:1008000087FD9095948383830E948A0A8FEF0F90CF
:100810000F900F900F9012C09FEF9EBD0DB407FE7A
:10082000FDCF8EB58993F4E0CD38DF07B1F78FEFB8
:100830008EBD0DB407FEFDCF8EB580E0DF91CF9168
:1008400008952F923F925F926F927F928F929F9224
:10085000AF92BF92CF92DF92EF92FF920F931F93CE
:10086000DF93CF93CDB7DEB761970FB6F894DEBFB5
:100870000FBECDBF229A2A9A85B1886285B984B10C
:10088000886284B92C9A83E58CBD5A98529A5B98F9
:10089000539A87B1887F87B988B1876088B989E121
:1008A00090E069E170E00E943C0921E031E0309382
:1008B000A00420939F048FE091E090939E04809386
:1008C0009D043093A2042093A104789400D088E77B
:1008D00090E0ADB7BEB712969C938E9311970E948D
:1008E0008A0AEBE7F3E020E030E00F900F9059E840
:1008F00027FF03C0822F852701C0822F8083482FC6
:1009000081E090E0440F47FD45270196883091052E
:10091000C9F741932F5F3F4FB1E020303B0741F7CC
:1009200024EF31E01E010894211C311C06C088EC24
:1009300090E00197F1F72150304021153105B9F7CA
:100940000E944E09892BF1F00E94410A853719F463
:1009500072E0872E5AC08C3619F48824839455C0CF
:100960008F3319F464E0862E50C0823719F455E0B5
:10097000852E4BC0803719F447E0842E46C0803561
:1009800009F477C446B147704730A1F1242F30E015
:1009900042FD1AC08091000182FD0EC040FD05C0DD
:1009A00080FF03C036E0832E2EC021FD2AC081FFC8
:1009B00028C027E0822E27C02370307023303105F5
:1009C00001F598E0892E1FC0C901837090708230B4
:1009D000910539F48091000180FF13C0882483942D
:1009E00012C0019771F48091000181FF0AC082E07A
:1009F000882E09C08091000182FD03C009E0802E8D
:100A000002C013E0812E4093000180911E018816E0
:100A100009F42AC4833009F027C410927B042A9A6F
:100A200080E090E02FEF2EBD0DB407FEFDCF3EB568
:100A300001968A309105B9F700E010E080E440E0CB
:100A400050E060E070E00E9439028130B9F00F5F41
:100A50001F4F0031110591F700D082EC92E0EDB705
:100A6000FEB7928381830E948A0A0F900F9060E004
:100A700078EC80E098EC0E9411025FC080E540E0D5
:100A800052E060E070E00E94390288E44AEA51E0F6
:100A900060E070E00E9439028130E1F480E090E093
:100AA0002FEF2EBD0DB407FEFDCF3EB5019684306D
:100AB0009105B9F700E21EE489EE40E050E060E005
:100AC00070E40E943902882319F001501040A1F708
:100AD00082E02BC08AE740E050E060E070E00E94D6
:100AE0003902813021F580E090E02FEF2EBD0DB46A
:100AF00007FEFDCF3EB5019684309105B9F700E2BF
:100B00001EE481E440E050E060E070E00E943902C1
:100B1000882319F001501040A1F780E540E052E031
:100B200060E070E00E94390281E080937B048FEFE7
:100B30008EBD0DB407FEFDCF8EB5F4E08F1609F023
:100B40001CC15A985B9800D000D0EDB7FEB7319623
:100B500083EB92E0ADB7BEB712969C938E9311973C
:100B600080917B04828313820E948A0A0F900F90E7
:100B70000F900F900E9488030E94E003882309F0E1
:100B8000EEC0BDE8EB2EB4E0FB2E8701F801119218
:100B90008F01F4E00D391F07C9F78AE440E050E007
:100BA00060E070E00E9439020E94D0038E3F09F09D
:100BB000D6C0F80170979FEF9EBD0DB407FEFDCF24
:100BC0008EB5819384E0ED39F807B1F78FEF8EBDD4
:100BD0000DB407FEFDCF8EB50E946F03882309F088
:100BE000BEC000D08AEA92E0ADB7BEB712969C9321
:100BF0008E9311970E948A0A00D0EDB7FEB7319606
:100C000004EA12E0ADB7BEB712961C930E9311978B
:100C100080916101828313820E948A0AEDB7FEB738
:100C20003196ADB7BEB712961C930E931197809173
:100C30006201828313820E948A0AEDB7FEB7319661
:100C4000ADB7BEB712961C930E93119780916301B6
:100C5000828313820E948A0AEDB7FEB73196ADB740
:100C6000BEB712961C930E931197809164018283F4
:100C700013820E948A0A0F900F908BE992E0EDB7E1
:100C8000FEB7928381830E948A0A0DE714E00F90D9
:100C90000F9000D000D0EDB7FEB7319685E992E015
:100CA000ADB7BEB712969C938E931197D8018D91D4
:100CB0008D01828313820E948A0A0F900F900F90F9
:100CC0000F90B4E00D381B0721F700D08CE892E0BC
:100CD000EDB7FEB7928381830E948A0A0F900F902E
:100CE00000D000D0EDB7FEB7319686E892E0ADB700
:100CF000BEB712969C938E931197D7018D917D016B
:100D0000828313820E948A0A0F900F900F900F9097
:100D1000BDE9EB16B4E0FB0619F70E946F0300D0A3
:100D200084E193E0EDB7FEB7928381830E948A0A43
:100D3000809176030F900F9080FD0DC000D081E16F
:100D400093E0ADB7BEB712969C938E9311970E9415
:100D50008A0A0F900F9000D08AE093E03BC000D049
:100D600080E792E0ADB7BEB712969C938E93119731
:100D70000E948A0A0F900F9077C2B1E08B16D9F5C6
:100D80005A985B9800D089E492E0EDB7FEB7928361
:100D900081830E948A0A0F900F900E94E0038823AB
:100DA00031F580918B04806180938B040E94C50291
:100DB000282F8823A1F40E9488030E94E00388233F
:100DC00031F40E942F0200D083E492E0CBCF00D018
:100DD0008FE192E0EDB7FEB792838183C9CF00D057
:100DE00000D0EDB7FEB7319686E092E03CC000D06F
:100DF0008AEE91E04EC0F2E08F1609F053C05A9887
:100E00005B9800D082EC91E0ADB7BEB712969C9390
:100E10008E9311970E948A0A0F900F900E94E00310
:100E20008823A1F580918B048F7E80938B040E9490
:100E3000C502282F882381F40E9488030E94E003C2
:100E4000882331F40E942F0200D08CEB91E0C2CFB6
:100E500000D088E991E086CF00D000D0EDB7FEB792
:100E600031968FE791E0ADB7BEB712969C938E9303
:100E70001197228313820E948A0A0F900F900F907D
:100E80000F9060E070E080E095EAECC100D083E66E
:100E900091E0EDB7FEB7928381830E948A0A0F909A
:100EA0000F90DCC1F5E08F1609F00DC100D0EEE324
:100EB000F1E0ADB7BEB71296FC93EE9311970E9486
:100EC0008A0A0F900F9081E540E050E060E070E00A
:100ED0000E943902882309F0C7C10E94D0038E3FC7
:100EE00009F444C0082F112707FD1095802F807E3C
:100EF00009F0BAC100D086E793E0ADB7BEB712964D
:100F00009C938E9311970E948A0A0F900F9004FF72
:100F10000BC000D085E693E0EDB7FEB792838183E6
:100F20000E948A0A0F900F9003FF0DC000D08BE43F
:100F300093E0ADB7BEB712969C938E9311970E9423
:100F40008A0A0F900F9002FF0BC000D089E393E054
:100F5000EDB7FEB7928381830E948A0A0F900F90AB
:100F600001FF82C100D088E293E0FCCEA5E66A2EA4
:100F7000A1E07A2EF3019FEF9EBD0DB407FEFDCFD9
:100F80008EB58193B3E0E536FB07B1F78FEF8EBDE9
:100F90000DB407FEFDCF8EB58FEF8EBD0DB407FEED
:100FA000FDCF8EB5198A198200D08CE993E0EDB798
:100FB000FEB7928381830E948A0AAA24BB2465011A
:100FC0000F900F90FEE25F2EEFE0EE2EF12C012D40
:100FD000112DEA20FB200C211D21E114F104010553
:100FE000110509F5ADB7BEB718970FB6F894BEBF97
:100FF0000FBEADBFEDB7FEB7319680E993E0129614
:101000009C938E93119733822282A482B582C682EA
:10101000D7820E948A0AADB7BEB718960FB6F89469
:10102000BEBF0FBEADBF00D000D0EDB7FEB731964A
:101030008AE893E0ADB7BEB712969C938E93119752
:10104000D3018C91828313820E948A0AF3019080DB
:101050000F900F900F900F90892D90E00E94570AEB
:10106000892B29F4892D90E0C0970A9728F4F10183
:10107000EE0DFF1D908204C0F101EE0DFF1D5082A8
:101080000894A11CB11CC11CD11C0894611C711CCA
:10109000F5E66F16F3E07F0609F096CF00D000D09A
:1010A000E4E8F3E0ADB7BEB71296FC93EE93119768
:1010B00014963C922E9213970E948A0A0F900F90DA
:1010C0000F900F90D1C0F7E08F1609F040C05A98EA
:1010D0005B980E946F038091760380FFA2C000D0CE
:1010E000E3E2F1E0ADB7BEB71296FC93EE93119731
:1010F0000E948A0A80E090E00F900F90FC01E8596E
:10110000FF4FE491DC01AB59BC4FEC930196803169
:101110009105A1F780E180937C0482E00E94130393
:101120000E946F038091760380FF05C082E00E94D9
:1011300013030E946F038091760380FF04C000D0E8
:10114000E4E0F1E04CC000D0EEEFF0E03BC0F6E0B0
:101150008F1609F04EC05A985B980E946F038091D9
:10116000760380FD60C000D0E5EEF0E0ADB7BEB71D
:101170001296FC93EE9311970E948A0A80E090E009
:101180000F900F90FC01E859FF4FE491DC01AB593F
:10119000BC4FEC93019680319105A1F780E18093DB
:1011A0007C0481E00E9413030E946F0384E00E948C
:1011B00013030E946F038091760380FD0DC000D061
:1011C000E4ECF0E0ADB7BEB71296FC93EE93119746
:1011D0000E948A0A5B9ACECD00D0EEEBF0E0ADB76C
:1011E000BEB71296FC93EE9311970E948A0A5A9A00
:1011F000C1CDF8E08F16C9F45A985B9800D0E6EAA2
:10120000F0E0ADB7BEB71296FC93EE9311970E9433
:101210008A0A0F900F900E946F038091760380FDE1
:1012200002C05B9A21C05A9A1FC0F9E08F16E1F400
:1012300000D0E8E8F0E0ADB7BEB71296FC93EE93AD
:1012400011970E948A0A0F900F900E9488030E94B3
:10125000E003882319F40E942F0206C060E078ECB6
:1012600080E098EC0E94110280921E0124EF31E090
:101270005ECB76E0872EC9CB9C0182E08093C000D4
:1012800088E98093C10086E08093C2002115310572
:1012900021F01092C5002093C400089580919D0410
:1012A00090919E048F50914019F020E030E00AC0E8
:1012B00090911F018091200120E030E0981711F0FB
:1012C00021E030E0C9010895A0919D04B0919E04F1
:1012D000109719F42FEF3FEF07C01A96ED91FC918C
:1012E0001B97CD0109959C01C90108958093C60003
:1012F0008091C00085FFFCCF80E090E00895909140
:101300001F01809120019817D1F3E0912001F0E0B6
:10131000EF5DFE4FE081809120018F5F809320017F
:10132000809120018F7380932001ED3009F4EAE071
:101330008E2F90E008951F920F920FB60F921124F6
:101340008F939F93EF93FF93E0911F01F0E08091C3
:10135000C600EF5DFE4F808380911F018F5F8093F9
:101360001F0180911F018F7380931F0190911F01B6
:1013700080912001981751F4809120018F5F809314
:101380002001809120018F7380932001FF91EF91C4
:101390009F918F910F900FBE0F901F901895AF9255
:1013A000BF92CF92DF92FF920F931F93CF93DF9361
:1013B000FC015A0110828C01FF24C62EDD24089402
:1013C000C108D108A114B10411F0F50109950E94DA
:1013D0004E09892BB9F30E946409EC018A3091050A
:1013E00009F444C08B3091052CF58FEFCF3FD8071F
:1013F000E9F1C830D105F1F4FF20A9F160919F0413
:101400007091A00488E090E00E945E0A60919F04C1
:101410007091A00480E290E00E945E0A60919F04B7
:101420007091A00488E090E00E945E0A0150104094
:10143000FA9419C0C032D105B4F060919F04709144
:10144000A004CE010E945E0A8F2D90E08C159D05B0
:101450002CF4F801C1938F01F39405C0F801C293F5
:101460008F010F5F1F4FF8011082ACCF8F2DDF91DE
:10147000CF911F910F91FF90DF90CF90BF90AF90D1
:101480000895CF93DF930E946409EC018FEFCF3F63
:10149000D80739F060919F047091A004CE010E949A
:1014A0005E0ACE01DF91CF91089585FD36C280623C
:1014B000911133C281568A51E0F708950F931F931B
:1014C000CF93DF938C01EB018B8181FF1BC082FFE7
:1014D0000DC02E813F818C819D812817390764F4CE
:1014E000E881F9810193F983E88306C0E885F985ED
:1014F000802F0995892B31F48E819F8101969F83DE
:101500008E8302C00FEF1FEFC801DF91CF911F91B3
:101510000F910895A0E0B0E0E0E9FAE00C94140D1A
:10152000FE01359661917191A0919F04B091A00444
:1015300013968C911397886013968C9380919F04D7
:101540009091A004AF010E94B00AE0919F04F09135
:10155000A0042381277F23832096E2E00C94300DA2
:10156000ABE0B0E0E6EBFAE00C94040D3C012B019B
:101570005A01FC0117821682838181FD03C06FEF3F
:101580007FEFC6C19AE0892E1E010894211C311CF0
:10159000F3012381F20123FD859123FF81912F0126
:1015A000882309F4B2C1853239F423FD859123FFE4
:1015B00081912F01853229F490E0B3010E945E0AE7
:1015C000E7CF982FFF24EE249924FFE1FF15D0F0F8
:1015D0009B3269F09C3228F4903259F0933291F4A6
:1015E0000EC09D3249F0903369F441E024C052E0CE
:1015F000F52A84E0F82A28C098E0F92A25C0E0E11D
:10160000FE2A22C0F7FC29C0892F80538A3070F44B
:10161000F6FE05C0989C902C1124980E15C0E89CED
:10162000E02C1124E80EF0E2FF2A0EC09E3229F4CD
:10163000F6FC6BC140E4F42A07C09C3619F450E86C
:10164000F52A02C0983649F4F20123FD959123FF53
:1016500091912F01992309F0B8CF892F85548330B8
:1016600018F08052833038F444E050E0A40EB51EE8
:101670005FE359830FC0933631F0933779F0933598
:1016800009F056C020C0F5018081898342E050E016
:10169000A40EB51E610101E010E012C0F501C0808A
:1016A000D180F6FC03C06FEF7FEF02C0692D70E0C0
:1016B00042E050E0A40EB51EC6010E949B0C8C01B6
:1016C0005FE7F52214C0F501C080D180F6FC03C0AD
:1016D0006FEF7FEF02C0692D70E042E050E0A40E92
:1016E000B51EC6010E94900C8C0150E8F52AF3FE4D
:1016F00007C01AC080E290E0B3010E945E0AEA943B
:101700008E2D90E008171907A8F30EC0F601F7FC1C
:101710008591F7FE81916F0190E0B3010E945E0A0E
:10172000E110EA94015010400115110579F7EAC063
:10173000943611F0993669F5F7FE08C0F50120815D
:1017400031814281538184E090E00AC0F5018081BB
:1017500091819C01442737FD4095542F82E090E011
:10176000A80EB91E9FE6F92257FF09C05095409573
:10177000309521953F4F4F4F5F4FE0E8FE2ACA0159
:10178000B901A1012AE030E00E94A60CD82ED2189F
:1017900040C0953729F41F2D1F7E2AE030E01DC080
:1017A0001F2D197F9F3661F0903720F4983509F08E
:1017B000ACC00FC0903739F0983709F0A6C004C00C
:1017C00028E030E00AC0106114FD146020E130E030
:1017D00004C014FD166020E132E017FF08C0F501D7
:1017E000608171818281938144E050E008C0F501FD
:1017F00080819181BC0180E090E042E050E0A40E45
:10180000B51EA1010E94A60CD82ED2188FE7F82E83
:10181000F122F6FE0BC05EEFF522D91438F4F4FE87
:1018200007C0F2FC05C08FEEF82202C01D2D01C0DA
:10183000192DF4FE0DC0FE01ED0DF11D80818033E8
:1018400019F499EEF92208C01F5FF2FE05C003C02B
:101850008F2D867809F01F5F0F2DF3FC14C0F0FE6A
:101860000FC01E1510F09D2C0BC09D2C9E0C911AC4
:101870001E2D06C080E290E0B3010E945E0A1F5F49
:101880001E15C0F304C01E1510F4E11A01C0EE24A9
:1018900004FF0FC080E390E0B3010E945E0A02FFE4
:1018A0001DC001FD03C088E790E00EC088E590E010
:1018B0000BC0802F867891F001FF02C08BE201C03F
:1018C00080E2F7FC8DE290E0B3010E945E0A06C060
:1018D00080E390E0B3010E945E0A9A94D914C0F3A9
:1018E000DA94F101ED0DF11D808190E0B3010E94C9
:1018F0005E0ADD20A9F706C080E290E0B3010E94F5
:101900005E0AEA94EE20C1F743CEF3016681778147
:10191000CB012B96E2E10C94200D9927882708959E
:10192000FC010590615070400110D8F780959095AA
:101930008E0F9F1F0895FC016150704001900110AF
:10194000D8F7809590958E0F9F1F0895FA01AA27CA
:10195000283051F1203181F1E8946F936E7F6E5FF2
:101960007F4F8F4F9F4FAF4FB1E03ED0B4E03CD0A0
:10197000670F781F891F9A1FA11D680F791F8A1F83
:10198000911DA11D6A0F711D811D911DA11D20D0EA
:1019900009F468943F912AE0269F11243019305DA4
:1019A0003193DEF6CF010895462F4770405D419395
:1019B000B3E00FD0C9F7F6CF462F4F70405D4A33E2
:1019C00018F0495D31FD4052419302D0A9F7EACFAA
:1019D000B4E0A6959795879577956795BA95C9F7D9
:1019E00000976105710508959B01AC010A2E0694CC
:1019F0005795479537952795BA95C9F7620F731F85
:101A0000841F951FA01D08952F923F924F925F92C1
:101A10006F927F928F929F92AF92BF92CF92DF92FE
:101A2000EF92FF920F931F93CF93DF93CDB7DEB763
:101A3000CA1BDB0B0FB6F894DEBF0FBECDBF0994F7
:101A40002A88398848885F846E847D848C849B844E
:101A5000AA84B984C884DF80EE80FD800C811B815C
:101A6000AA81B981CE0FD11D0FB6F894DEBF0FBE8B
:0A1A7000CDBFED010895F894FFCFFB
:101A7A0007000000020000000076090000000000D4
:0E1A8A000000010000000000007F09000000C5
:00000001FF
